:08000E002530325820000D00DE
:1008BC007E007F107D007B017A0079001204C37EDC
:1008CC00007F107D007B017A0079101204C37E003A
:1008DC007F507D007B017A0079201204C37E007F5B
:1008EC00507D007B017A0079701204C37E007F0278
:1008FC007D007B017A0079C31204C3E49000C0F040
:10090C00A3F0A3F0758780759870758920758DFD9F
:10091C00D28E758C4CF58A438901D28C90F6037477
:10092C0092F090F6027403F0120ABE9000C4740A9E
:10093C00F09000C3F0D2ACD2A9D2A8D2AF90F808F4
:10094C007401F0FB7A007910120FE990F80874200A
:10095C00F0C2AF9000C0E0FF30E30E54F7F0D2AF1E
:10096C007B017A007900120F84C2AF9000C0E0FFC7
:10097C0030E21554FBF0120ABE7F017E001211A961
:10098C00D2AF90F8087401F0C2AF9000C0E0FF2025
:10099C00E003020A6F54FEF0D2AF9000CDE4F0A356
:1009AC00F0A3F0A37410F07B017A00792012068773
:1009BC00E49000C7F09000C7E0FEC394105014748C
:1009CC00102EF582E43400F583EFF09000C7E004BC
:1009DC00F080E27E007F507D007B017A007920124E
:1009EC0004C3E49000C1F09000C8F0A3F09000C7DD
:1009FC00F09000C7E0FFC3941050469000C9E0246B
:100A0C0070F9E43400FA7B019000CD74FFF0A3740C
:100A1C0000F0A3740EF074002FF582E43400F5831B
:100A2C00E0FF9000D0E4F0A3EFF012008B9000C92F
:100A3C00E02FF09000C8E03EF09000C7E004F0809A
:100A4C00B09000CD74FFF0A37400F0A37414F07B8D
:100A5C00017A007970120F19E49000C2F0900070C6
:100A6C00E0F599C2AF9000C0E0FF30E12654FDF0F4
:100A7C009000C3740AF0D2AF7B017A007910120F88
:100A8C00E990F602E030E1057401F0800690F60280
:100A9C007403F0C2AF9000C0E0FF30E40854EFF0F4
:100AAC00D2AF121237D2AF7F0A7E001211A90209FF
:020ABC005722BF
:1010F90090F80BE05403FF24FE601B14602C2402BB
:10110900703C90F81BE075F008A42400FFE5F0346A
:10111900F8FCAD07802B90F81CE075F008A42400BA
:10112900FFE5F034F8FCAD07801790F81DE075F085
:1011390008A42400FFE5F034F8FCAD078003E4FCC3
:08114900FDAA04A9057B0122A7
:1011510090F809E05403FF24FE601B14602C240264
:10116100703C90F81FE075F008A42400FFE5F0340E
:10117100F8FCAD07802B90F820E075F008A424005E
:10118100FFE5F034F8FCAD07801790F821E075F029
:1011910008A42400FFE5F034F8FCAD078003E4FC6B
:0811A100FDAA04A9057B01224F
:1010460090F808E0FFC45403FF24FE601B14602CD4
:101056002402703C90F81FE075F008A42400FFE518
:10106600F034F8FCAD07802B90F820E075F008A46A
:101076002400FFE5F034F8FCAD07801790F821E076
:1010860075F008A42400FFE5F034F8FCAD078003F2
:0A109600E4FCFDAA04A9057B012279
:1012B00090F834E0FD7C007E007803C333CE33CE5B
:1012C000D8F9FDAC062400FFEE34F8FE8F82F583DA
:1012D000741FF00FEF70010EF5828E83742FF022D1
:100F84009000CAEBF0A3EAF0A3E9F090F804E0FFC4
:100F9400C45403FF6402704C1210F9AE02AF019006
:100FA40000F2EEF0A3EFF04E603AE4FFEFC39410CA
:100FB40050329000F2E0FCA3E0F5828C83E0FE90D6
:100FC40000CAE0FBA3E0FAA3E0F98F82758300EE88
:100FD4001203B89000F3E004F070069000F2E0040D
:050FE400F00F80C8229F
:100FE9009000CAEBF0A3EAF0A3E9F09000F4E070F6
:100FF90002A3E06047E4FFEFC3941050329000CAA7
:10100900E0FBA3E0FAA3E0F98F8275830012038B5A
:10101900FE9000F4E0FCA3E0F5828C83EEF09000F2
:10102900F5E004F070069000F4E004F00F80C812B7
:0D1039001151AF019000F4EAF0A3EFF02296
:100ABE0090F602E04404F07F017E001211A990F638
:100ACE0002E054FBF07F017E001211A990F600E0C7
:100ADE009000CBF0E0540FFF1213079000CCEFF014
:100AEE009000CBE0FFC4540FFF1213079000CDEF20
:100AFE00F090F601E09000CBF0E0540FFF121307D8
:100B0E009000CDE075F00AA4FEEF75F064A42EFF00
:100B1E009000CCE02F9000CAF0D3947D4003747DFA
:100B2E00F07AF879007EF87F007D007CF8E4FFFE15
:100B3E00D3EF94FFEE9405501BC3EF9416EE940082
:100B4E0040068D828C83E4F00DED70010C0FEF707A
:100B5E00010E80DCE490F800F0A3F0A3F0A3F0A364
:100B6E0074F1F0A374C0F0A3F0A37405F0E4A3F045
:100B7E00A3F0A3741EF0A3740BF09000CAE090F8DB
:100B8E0016F0A37479F0A37420F0A3744EF0A3743E
:100B9E0010F0A37408F0A3740AF0A3740CF0A374FD
:100BAE0010F0A3740EF0A37410F0A37412F0E4A36B
:100BBE00F0A3F0A37406F0A3F0A37465F0A3746918
:100BCE00F0A37418F0E4A3F0A3F0A37476F0A3746A
:100BDE0079F0E4A3F0A3F0A37414F0A37473F0A35C
:100BEE00740AF0A3746DF0A37402F0A37470F0E4B1
:100BFE00A3F0A3F0A3F0A3F0A374FFF0A37408F086
:100C0E00E4A3F0A3F0A3F090F817E0FB7A007E00C7
:100C1E007803C333CE33CED8F9FBAA062400FFEEF9
:100C2E0034F8FCAD078F82F58374FFF01212B01208
:0D0C3E001046AF019000F4EAF0A3EFF022A1
:100C4B0050726F666962757320636F64652C2052F6
:100C5B00657620322C204A696D2042726164792CB2
:100C6B002044656320323030350D00000000000059
:100C7B000000000000000000000000000000000069
:100C8B000000000000000000000000000000000059
:100C9B00507265737320435220746F207365652007
:100CAB006D6F737420726563656E7420646174611B
:100CBB002066726F6D206D61737465720D0000009C
:100CCB000000000000000000000000000000000019
:100CDB000000000000000000000000000000000009
:100CEB004F7220656E74657220612076616C75653C
:100CFB0020302D46462068657820746F2073656E12
:100D0B006420746F206D61737465720D00000000B8
:100D1B0000000000000000000000000000000000C8
:100D2B0000000000000000000000000000000000B8
:040006004100F600BF
:1011A900E49000CEF0A3F0C39000CFE09F9000CE72
:1011B900E09E5034E49000D0F0A3F0C39000D1E059
:1011C90094249000D0E09400500EA3E004F070063F
:1011D9009000D0E004F080E39000CFE004F07006C6
:0911E9009000CEE004F080BF226A
:10130700E4FEEF20E0037408FEEF20E104EE44045E
:10131700FEEF20E204EE4402FEEF20E304EE440178
:04132700FEAF0622ED
:101237009000F6E0FFD394025033EF75F050A424EA
:101247004BF9740C35F0FA7BFF78707C007D011246
:1012570004A69000F6E004F0E49000C2F09000705D
:0E126700E0F599C2AF9000C47402F0D2AF223D
:03000B0002127569
:10127500C0E0C083C082C28C758C4C758A00D28C4C
:101285009000C4E0600C14F0E070079000C0E044EA
:1012950010F09000C3E0600C14F0E070079000C0FF
:0B12A500E04402F0D082D083D0E032A1
:1010A00090F831E0F9A3E0FB7A007E007803C333C7
:1010B000CE33CED8F9FBAA062400FFEE34F8FE8F1B
:1010C00082F583E0FC0FEF70010EF5828E83E0FF66
:1010D000AE01E9B40215ECB41F11EFB42F0D90F876
:1010E000097410F090F810E0FD800B90F80974106E
:0910F000F090F811E0FDAF0522BB
:1011F20090F82FE0FCA3E0FB7A007E007803C33373
:10120200CE33CED8F9FBAA062400FFEE34F8FEEC6A
:10121200D3940A400790F80FE0FD800590F80EE0A5
:10122200FDED6401600C8F828E83A3A3A3E090F88E
:051232000BF0AF0522E6
:03000300020D3BB0
:100D3B00C0E0C083C082C0D075D000C000C001C06D
:100D4B0002C003C004C005C006C00790F802E03023
:100D5B00E1037402F090F802E030E2037404F090C7
:100D6B00F802E030E30D9000C0E04404F090F8028C
:100D7B007408F090F803E030E0037401F090F8038E
:100D8B00E030E1037402F090F803E030E2219000D0
:100D9B00C5E4F09000C5E0C3940350131210A0906B
:100DAB0000C6EFF0B401089000C5E004F080E490B9
:100DBB00F803E030E3219000C5E4F09000C5E0C3F8
:100DCB00940350131211F29000C6EFF0B401089087
:100DDB0000C5E004F080E490F803E030E403741005
:100DEB00F090F803E030E50D9000C0E04408F0907F
:100DFB00F8037420F090F8087402F0D007D006D0F6
:100E0B0005D004D003D002D001D000D0D0D082D0F6
:040E1B0083D0E0326E
:03002300020EAB1F
:100EAB00C0E0C083C082C0D075D000C006C0073080
:100EBB00982BC298AF999000C1E0FE2420F582E4F4
:100ECB003400F583EFF0EEC3944F50069000C1E071
:100EDB0004F0EFB40D079000C0E04401F03099210D
:100EEB00C2999000C2E0C3944F5003E004F090000D
:100EFB00C2E02470F582E43400F583E0FF6002F574
:0E0F0B0099D007D006D0D0D082D083D0E0326B
:03000000020E1FCE
:0C0E1F00787FE4F6D8FD758121020E6694
:10038B00BB010CE58229F582E5833AF583E0225027
:10039B0006E92582F8E622BBFE06E92582F8E22271
:0D03AB00E58229F582E5833AF583E493228B
:1003B800F8BB010DE58229F582E5833AF583E8F07B
:1003C800225006E92582C8F622BBFE05E92582C827
:0203D800F2220F
:10002600E50824CDF582E43400F583E00508229046
:1000360000CA3007039000CDE475F0011205E00216
:1000460004EF2000E97F2ED2008018EF540F249091
:10005600D43440D4FF30040BEF24BFB41A0050034D
:100066002461FFE50960021509050CE50C7002051F
:100076000B30070E9000CAE475F0011205E0EF029E
:1000860005080212E07403D2078003E4C207F508EC
:100096009000CA1205F7E4F509F50BF50CE50960C1
:1000A600077F2012006980F5750AFFC201C200C2EF
:1000B60002C203C205C206C208120035FF700D3027
:1000C60007057F0012007AAF0CAE0B22B4255FC283
:1000D600D5C204120035FF24D0B40A00501A75F0B8
:1000E6000A780930D50508B6FF0106C6A426F6200B
:1000F600D5047002D20380D924CFB41A00EF50047D
:10010600C2E5D20402027BD20180C6D20080C0D2F0
:100116000280BCD2D580BAD20580B47F2012006995
:100126002002077401B5090040F1120026FF1200F3
:10013600690200A3D208D2068095120026FB12009F
:1001460026FA120026F94A4B7006794C7A037BFF91
:1001560020022EE509602A7E008E82758300120336
:100166008B60060EEE650A70F0C2D5EBC0E0EAC001
:10017600E0E9C0E0EE1202C2D0E0F9D0E0FAD0E049
:10018600FB1204EFFF60AAEBC0E0EAC0E0E9C0E0C2
:10019600120069D0E02401F9D0E03400FAD0E0FB87
:1001A600E50A0460DCD50AD980877BFF7A0279BE2E
:1001B600D202809C791080027908C206C2088008A3
:1001C600D2D5790A8004790AC2D5E50A047002F507
:1001D6000AE4FAFDFEFF120026FC7B08200113123A
:1001E6000026FD7B1030000A120026FE120026FFB4
:1001F6007B20EC3382D592D55013C3E43000069FA2
:10020600FFE49EFEE42001039DFDE49CFCE4CBF8A4
:10021600C201EC700CCFCECDCCE824F8F870F38098
:1002260017C3EF33FFEE33FEED33FDEC33FCEB3358
:10023600FB994002FB0FD8E9EB300105F8D0E0C48A
:1002460048B201C0E00AEC4D4E4F78207B0070C2E8
:10025600EAB50A0040BCC0E01202C4D0F0D0E020EB
:100266000104C4C0E0C4B201C0F0120052D0F0D5FF
:10027600F0EB0200A312064F01405301BA580111D8
:100286004C010D4201BE4F01C64401C64901264339
:0802960001CC5501B04601B096
:10029E004501B047036C5001152D01192E013C2B61
:1002AE00011D23013A2003552A00D54800000134D0
:1002BE003F3F3F00790AA2D5200314300509B9103B
:1002CE00020404B9080104A2D5200602500104203C
:1002DE0002689202B509005034C0E07F2030031945
:1002EE007F30A20272067205500F12031BC202C2A9
:1002FE0006C205C2087F30800F300503E9C0E01248
:10030E000069300503D0E0F9D0E0B509CC3005170F
:10031E007F30B9100C1200697F583004077F788047
:10032E0003B908031200693002057F2D0200697FB0
:10033E00202008F87F2B2006F322920280CF286E11
:10034E00756C6C2900D2011200263001F8C20178BA
:10035E000930D50108F60200D52D50434958120038
:10036E00262403B405004001E49003679312005A5B
:0D037E00743A12005AD2037509040201BA44
:100F19009000CAEBF0A3EAF0A3E9F09000D0EBF05F
:100F2900A3EAF0A3E9F09000CAE0FBA3E475F0019D
:100F3900120530A9F0FA1204EF70EB9000CB74FFA0
:100F4900F5F012051A9000CDE0FBA3E475F001124B
:100F59000530A9F0FA1204EFFF9000CAE0FBA3E400
:100F690075F001120530A9F0FAEF12050870D69054
:0B0F790000D0E0FBA3E0FAA3E0F922A7
:1003DA00E709F60870FA8046E709F20870FA803EE3
:1003EA0088828C83E709F0A370FA807EE309F60815
:1003FA0070FA8076E309F20870FA806E88828C833C
:10040A00E309F0A370FA806289828A83E0A3F6087E
:10041A0070FA805689828A83E0A3F20870FA804AC9
:10042A0080D280FA80C680D4806580F280318010C4
:10043A0080A680EA809A80A880DA80E280CA803129
:10044A0089828A83ECFAE493A3C8C582C8CCC5839F
:10045A00CCF0A3C8C582C8CCC583CC70E9800D890D
:10046A00828A83E493A3F60870F9ECFAA9F0EDFB0B
:10047A002289828A83ECFAE0A3C8C582C8CCC583E4
:10048A00CCF0A3C8C582C8CCC583CC70EA80DD890C
:10049A00828A83E493A3F20870F980CE88F0ED246F
:1004AA0002B4040050C4F582EB2402B4040050BA2A
:0904BA00232345822390042A73D8
:100687009000CAEBF0A3EAF0A3E9F09000D31205BB
:10069700AF00000000E49000D1F0A3F09000CDE09F
:1006A700FBA3E0FAA3E0F9EA494B60209000CAE017
:1006B700FBA3E0FAA3E0F9EBC0E0EAC0E0E9C0E0A1
:1006C700A3E0FBA3E0FAA3E0F91206009000CAE05A
:1006D700FBA3E475F001120530A9F0FA1204EF90BC
:1006E70000D7F0E0FFC394094006EFD3940D40DC38
:1006F700EF642060D7EFB42D0C9000D1E0F0A3E0B9
:100707004403F0801D9000D7E0B42B0C9000D1E09B
:10071700F0A3E04401F0800A9000CB74FFF5F012DB
:10072700051A9000D0E06004641070519000CAE090
:10073700FBA3E0FAA3E0F91204EF6430600B90002A
:10074700D0E07039740AF0803490000112038BFFF7
:1007570064786004EFB4581C9000D1E0F0A3E04443
:1007670001F09000D07410F09000CBE475F0021205
:10077700051A80099000D0E070037408F09000CA51
:10078700E0FBA3E475F001120530A9F0FA1204EFBB
:100797009000D7F0E0FFC39461400AEFD3947A50FA
:1007A70004EF54DFF09000D7E024D0F0E0FFC394CB
:1007B7000A400CEF9411407B9000D7E024F9F090A9
:1007C70000D0E0FF9000D7E0D39F50679000D1E0C2
:1007D700F0A3E04401F07E00E4FCFDA3E0F8A3E011
:1007E700F9A3E0FAA3E0FB120546C8ECC8C9EDC9B6
:1007F700CAEECACBEFCB9000D7E0FFE4FCFDFEEBDF
:100807002FFFEE3AFEED39FDEC38FC9000D31205D0
:10081700A39000D3E0FCA3E0FDA3E0FEA3E0FFEC80
:100827003340030207849000D1E0F0A3E04404F0D2
:100837000207849000D2E020E006E4FFFEFDFC22E0
:100847009000CDE0FBA3E0FAA3E0F9EA494B60266C
:100857009000CAE0FBA3E0FAA3E024FFF9EA34FF23
:10086700FAEBC0E0EAC0E0E9C0E0A3E0FBA3E0FAEE
:10087700A3E0F91206009000D1A3E030E21230E1C4
:1008870007E4FFFEFD7C802274FFFFFEFD7C7F22D4
:100897009000D2E030E10FA3E0FCA3E0FDA3E0FE6F
:1008A700A3E0FF0205959000D3E0FCA3E0FDA3E0E1
:0508B700FEA3E0FF229A
:1004C300EF4E6012EF60010EEDBB010B89828A8350
:1004D300F0A3DFFCDEFA2289F05007F709DFFCA95D
:0C04E300F022BBFEFCF309DFFCA9F022B4
:100E2B000208BCE493A3F8E493A34003F68001F219
:100E3B0008DFF48029E493A3F85407240CC8C333C8
:100E4B00C4540F4420C8834004F456800146F6DF97
:100E5B00E4800B0102040810204080900006E47E21
:100E6B00019360BCA3FF543F30E509541FFEE4938C
:100E7B00A360010ECF54C025E060A840B8E493A353
:100E8B00FAE493A3F8E493A3C8C582C8CAC583CA7E
:100E9B00F0A3C8C582C8CAC583CADFE9DEE780BE36
:01000A0000F5
:1004EF00BB010689828A83E0225002E722BBFE020B
:0904FF00E32289828A83E493223E
:10050800BB010689828A83F0225002F722BBFE01D2
:02051800F322CC
:10051A00C5F0F8A3E028F0C5F0F8E582158270026C
:06052A001583E038F02209
:10053000A3F8E0C5F025F0F0E5821582700215837E
:06054000E0C838F0E822DB
:10054600E88FF0A4CC8BF0A42CFCE98EF0A42CFC54
:100556008AF0EDA42CFCEA8EF0A4CDA8F08BF0A4D2
:100566002DCC3825F0FDE98FF0A42CCD35F0FCEB31
:100576008EF0A4FEA9F0EB8FF0A4CFC5F02ECD39F6
:0F058600FEE43CFCEAA42DCE35F0FDE43CFC2263
:0E059500C3E49FFFE49EFEE49DFDE49CFC2277
:0C05A300ECF0A3EDF0A3EEF0A3EFF022CB
:1005AF00A8828583F0D083D0821205C61205C612A9
:1005BF0005C61205C6E473E493A3C583C5F0C583CE
:1005CF00C8C582C8F0A3C583C5F0C583C8C582C896
:0105DF0022F9
:1005E000F8E0FBA3A3E0F925F0F0E58215827002A4
:0705F0001583E0FA38F02248
:0905F700EBF0A3EAF0A3E9F02205
:10060000BB011A89828A83D0F0D0E0F8D0E0F9D01B
:10061000E0FAD0E0FBE8C0E0C0F00205F75016E9D0
:10062000F8D083D082D0E0F9D0E0FAD0E0FBC082ED
:10063000C083020675BBFE16E9F8D083D082D0E0F5
:0F064000F9D0E0FAD0E0FBC082C08302067E2230
:10064F00D083D082F8E4937012740193700DA3A33A
:10065F0093F8740193F5828883E47374029368604E
:06066F00EFA3A3A380DF4E
:1012E000EFB40A07740D1212EB740A309811A89922
:1012F000B8130CC2983098FDA899C298B811F6306E
:0713000099FDC299F5992245
:09067500EBF608EAF608E9F622AA
:09067E00EBF208EAF208E9F222AD
:00000001FF
