:1000000037C151C150C14FC14EC14DC14CC14BC18F
:100010004AC149C148C147C146C145C144C10000A8
:1000200078460438824600F019F8000000BE704798
:10003000002910D001220023002902D449005200D7
:10004000FAE7884201D3401A134349085208F8D10D
:10005000011C181C704700200021704770B584B047
:100060003F48504400F0CCF80025281C00F08CF8E4
:10007000061C0224022E08D9281C211CFFF7D8FFD9
:10008000002902D0641CB442F6D3B4420AD100A8BD
:10009000291C00F08DF800A800F0B2F83148504457
:1000A00000F0AEF86D1C30488542DED30022872177
:1000B0002E4881700C21C170841C237840210B4391
:1000C000237083780B40002BFBD10021274DA81C07
:1000D000402304781C430470AC781C40002CFBD1F6
:1000E0002C881219491C1029F3D3510820480818EC
:1000F000111CFFF79DFF041C1E48504400F080F8BF
:10010000201C1949FFF794FF011C00A800F050F8CB
:10011000201C1549FFF78CFF0C1C00A800F070F89C
:100120001548504400F06CF800A8211C00F040F87D
:10013000642C03D21148504400F062F80A2C03D218
:100140000E48504400F05CF800A800F059F80C4844
:10015000504400F055F810210A480170FDE7C046F0
:100160002C0200003D020000E803000024000020F3
:10017000000013013F020000460200004802000098
:100180004A02000036000020074B084A191C594358
:10019000814207D0814201D29B1800E09B1A52088D
:1001A000002AF3D1181C7047004000000020000016
:1001B00070B5051C0C1C0026002C03DA2D202870BD
:1001C0006D1C6442201C711C09060E0E0A21FFF7EB
:1001D0002FFF0028F7D1A9194D1E00200870201C00
:1001E0000A21FFF725FF303129706D1E201C0A21DE
:1001F000FFF71EFF041C002CF1D170BC08BC18478F
:1002000010B5041C00202056641C002806D0FFF7FF
:100210000DFF00202056641C0028F8D110BC08BC3B
:1002200018470000000000003D0000002D01000004
:10023000800740009101000051000000800720006D
:10024000E101000023000000800110007468697360
:1002500020697320612074657374210A000A0056B6
:100260006363203D20002E003000560A000000008D
:1002700011241FBECFE5D2E0DEBFCDBF10E0A0E667
:10028000B0E0ECE8FDE002C005900D92A036B107A9
:10029000D9F710E0A0E6B0E001C01D92AD39B1077A
:1002A000E1F754D551C5ACCEFF91EF91EC0FF11DA4
:1002B00009941A2F1770110F110FF101E10FF11DA1
:1002C000219131914191508108951A2F1770110F8A
:1002D000110FF101E10FF11D6191719181919081F7
:1002E00008956B2F6770660F660FF101E60FF11D21
:1002F000619171918191908108952B2F2770220F28
:10030000220FF101E20FF11D2191319141915081B4
:1003100008951A2F1770110F110FA7FD10621C33CB
:1003200041F0F101E10FF11D619171918191908195
:100330000895B601C7016E5F7F4F8F4F9F4F08959D
:100340001A2F187716951C3341F0F101E10FF11DBA
:10035000219131914191508108959601A7012E5F1D
:100360003F4F4F4F5F4F08951A2F187716951C3344
:1003700041F0F101E10FF11D619171918191908145
:100380000895B601C7016E5F7F4F8F4F9F4F08954D
:100390006A2F68736695F101E60FF11D6191719105
:1003A0008191908108952A2F28732695F101E20FFB
:1003B000F11D219131914191508108955A2F52950B
:1003C0005C70B0FD5061F101E50FF11D219131919B
:1003D000419150810895692E562E572A582A592A3C
:1003E00005C1A778A7FDA860AA0FAA0FF101EA0F1F
:1003F000F11D6193719381939083F8C07FB64FB6DE
:10040000692E562E572A582A592AA770AA0FAA0FC2
:10041000F101EA0FF11D6193719381939083E6C01E
:10042000A770AA0FAA0FF101EA0FF11D21933193D2
:1004300041935083DBC0B770BB0FBB0FF101EB0FD3
:10044000F11D2193319341935083D0C0692E562ED4
:10045000572A582A592AB770BB0FBB0FF101EB0F6F
:10046000F11D6193719381939083C0C0FD01EE0FE4
:10047000FF1FEE0FFF1FFF710895FD01F695E79531
:10048000E695E295E770089583DFED01D295C29578
:10049000D077CC70DC0F6D0F711D811D911D0895FB
:1004A00077DFED01CC0FDD1FCC0FDD1FDD0FDE731D
:1004B0006D0F711D811D911D08956ADFED01CC0F37
:1004C000DD1FCC0FDD1FDF716D0F711D811D911DB3
:1004D00008955EDF73DF620F731F841F951F0895F9
:1004E0006091940070919500809196009091970092
:1004F00011270A2E000C111F000C111F600D711F17
:10050000811D911D0895B601C70111270A2E000C07
:10051000111F000C111F600D711F811D911D6E5F59
:100520007F4F8F4F9F4F08956450704080409040A0
:100530002FC005D06C5F7F4F8F4F9F4F0895FB01F9
:10054000903239F09034F1F42591359145915491E0
:10055000089521913191419150810895FB0190328C
:1005600029F0903489F425913491089521913081B6
:100570000895FB01903221F0903441F424910895C4
:1005800020810895FFCFFFCFFFCFFFCFFFCFFFCF59
:10059000903289F4FB012193319341935083089564
:1005A000903259F4FB01219330830895903239F44D
:1005B000FB0120830895FFCFFFCFFFCFFFCFFFCFF9
:1005C000FFCF6B017C01EDB7EF60EDBFFEB7389751
:1005D000C0E2EC7FE0939400F093950010929600B7
:1005E000C0939700F0E0E0E61F01012DB601C701BE
:1005F000B5DFD9016E5F7F4F8F4F9F4F6B017C013D
:10060000011120C3CB2FC6954FDE7FC07EC07DC0B9
:100610007CC086C085C084C083C08DC08CC08BC0A8
:100620008AC094C09AC0A3C0A9C0AFC0AEC0ADC0BC
:10063000ACC0B0C0AFC0AEC0ADC0B5C0B4C0B3C038
:10064000B2C0B9C0B8C0B7C0B6C0BEC029C16AC1C7
:1006500077C187C186C185C184C187C18AC18DC167
:1006600090C19AC19CC1A0C1A5C1ADC1ACC1ABC173
:10067000AAC1ADC1ACC1ABC1AAC1ACC1ABC1AAC119
:10068000A9C1ACC1ABC1AAC1A9C1AEC1ADC1ACC108
:10069000ABC1AEC1ADC1ACC1ABC1AFC1AEC1ADC1EB
:1006A000ACC1AFC1AEC1ADC1ACC1AEC1ADC1ACC1D9
:1006B000ABC1ACC1ABC1AAC1A9C1AAC1CAC1DFC18A
:1006C00006C209C304C21CC23EC251C250C24FC2BC
:1006D0004EC25EC25DC25CC25BC274C276C278C2E8
:1006E0007AC27CC282C27FC298C297C296C295C2A9
:1006F00094C2A4C2A3C2A2C2A1C2A0C29FC29EC2EF
:100700009DC29CC29BC29AC299C242DEAFDE39F042
:10071000660F771F881F991FFA95D1F74FB670CED5
:1007200037DEA4DE09F4F0E2969587957795679514
:10073000FA95D1F764CE2CDE99DEB1F7F0E295950B
:10074000879577956795FA95D1F759CE21DE36DEF4
:10075000620F731F841F951F51CE1ADE2FDE621B9E
:10076000730B840B950B7FB6472C439449CE10DE58
:1007700084DE6E0F711D811D911D40CE09DE7DDE70
:100780006E1B71098109910939CE7727882799272E
:100790006A2F5CCEA6DD6A1B7109810991097FB6BB
:1007A000472C439418CE9DDD6A0F711D811D911D4C
:1007B0004FB6742C4BCE95DD6A1B710981099109E6
:1007C0007FB6472C439442CE80DDEDDDCA2FC07C3E
:1007D000B0FD2CC0C03449F0C03861F0C03CC1F05D
:1007E00062237323842395235AC0622773278427A7
:1007F000952755C02030E9F3203238F0660F771F77
:10080000881F991F2A95D1F701C088944FB647C019
:100810002030E9F3203238F09695879577956795E3
:100820002A95D1F701C088944FB639C0C03491F0F1
:10083000C038C1F0C03C01F12030B9F3203208F4D7
:1008400020E295958795779567952A95D1F700C011
:100850004FB625C04694621F721F841F951F4FB666
:10086000742C1DC043944694620B730B840B950B40
:100870007FB6472C439413C0203089F02F7021F4A9
:10088000991F4FB697950BC0889460FD0894979573
:100890008795779567952A95B9F700C04FB6B0CD83
:1008A00014DD81DDCA2FC07CB0FD1FC0C03449F00B
:1008B000C03879F0C03C91F06223732384239523E0
:1008C0008ACD22273327A901261B370B480B590B4A
:1008D0004ACF621B730B840B950B61CF620F731FA2
:1008E000841F951F4FB6742C76CDC03449F0C038A4
:1008F00049F0C03C81F0622B732B842B952BCFCF1A
:100900000CD2CDCF2095309540955095622373231E
:1009100084239523C4CF2095309540955095690147
:10092000CA01BDCFF6DC0CDDB0FD05C0620F731F40
:10093000841F951F56CD621B730B840B950B2FCF15
:1009400013DDB0FFF7CFA7FF08C0C0929800D09288
:100950009900E0929A00F0929B006E7F6B017C01FF
:1009600045CED1DD6C7FEBDD66CDB3DDA2DC10DEE4
:100970003DCEAFDD9EDC14DE39CEABDD9ADC16DE7B
:1009800035CEA7DDF6DD33274427552727FF03C0E3
:1009900030954095509544CD9CDDD1DD41CD99DD1C
:1009A000DDDD442755273CCD94DDE3DD33274427A7
:1009B000552736CD8EDDD2DD4427552737FF02C0BF
:1009C000409550952DCD60DD74DCE2DD0FCE5CDD11
:1009D000B6DD26CD72DD6DDCE9DD08CE6EDDC9DD6C
:1009E0003327442755271CCD5BDD63DCD9DDFECDE5
:1009F00057DDB4DD4427552713CD72DD7EDCC8DD1D
:100A0000F5CD6EDD9CDD17CD7EDD25CD69DD23CDF9
:100A1000609194007091950080919600909197005C
:100A20002227AA0F331FAA0F221F30FD05C06A0F0D
:100A3000721F811D911D04C06A1B720B81099109EF
:100A40006093940070939500809396009093970024
:100A5000CDCD9EDCCC27A7FD0DC0A6FD05C077FD42
:100A6000CFEF8C2F9C2FD1CC67FDCFEF7C2F8C2F1D
:100A70009C2FCBCCA6FD712D812D912DC6CC6091E4
:100A80009400709195008091960090919700B0FF2E
:100A900009C0209198003091990040919A0050919E
:100AA0009B0042DDE101A0962497AA0F30F4288133
:100AB00039814A815B8138DDF7CFB1F760939400CB
:100AC0007093950080939600909397008FCD60DC93
:100AD000A7FD0DC0A6FD07C06927962769277827BF
:100AE0008727782792CC7627672776278ECCCC2746
:100AF00076276727762777FDCFEF8C2F9C2F85CC25
:100B0000609194007091950080919600909197006B
:100B1000E10124972496A69530F40BDD28833983D0
:100B20004A835B83F7CFB1F7B0FF04C002DD6901F0
:100B30007A01CA9460939400709395008093960014
:100B40009093970053CDB0FF0DC0A03351F0A03269
:100B500041F0A03431F0A03019F0A03109F0BBC051
:100B600045CD44CDA11142CD8A2F0AD13FCDB9DB6D
:100B7000ED0124972496A69548F4288139814A816D
:100B80005B8106DD6C5F7F4F8F4F9F4F99F763CC82
:100B9000A8DB1B2F17701395ED012497E89424967A
:100BA0001A95A69558F411116894C9DC6C5F7F4FB3
:100BB0008F4F9F4F288339834A835B8381F70EF0E1
:100BC0004ACC14CD511016C018C040FC16C012C03B
:100BD00067FC13C00FC073FC10C00CC040FE0AC0FD
:100BE00051100BC007C0511429F0C72DC295C6255E
:100BF0000AF003C0B0FFFACC02C0B0FDF7CCCC279E
:100C0000AA0F08F4CFEFCA0EDC1EEC1EFC1EA2E0F9
:100C1000CA0ED11CE11CF11CE9CCCC27AA0FBB1FCA
:100C2000BF70B3FF02C0B06FCFEFDC2F1296C11DB3
:100C3000D11DCA0EDB1EEC1EFD1ED8CCA0939C005D
:100C40000B2FD4CC702F60919C00012DCB2FC07D39
:100C500011F1C03D09F03FC0C394C0929800D092FA
:100C60009900E0929A00F0929B00CA94AA0FBB1FD1
:100C7000BF70777072956295C62FCF70607FB62B6C
:100C80007C2BCC2776FDCFEF770F7595CA0EDB1E38
:100C9000E71EFC1EABCC733FF1F6C62FC295CF709A
:100CA00003DB19C018C017C016C015C014C013C08C
:100CB00012C007C006C00FC004C00DC00CC001C0E8
:100CC00000C0CA2FC07FC03429F0C03519F0C0362B
:100CD00009F001C08BCCFFCF0000089568E26A954F
:100CE000F1F700000000089598E0C498F7DFF4DF02
:100CF000869518F40000C49A03C0C4980000000050
:100D0000EDDF9A95A9F70000000000000000000048
:100D10000000C49AE3DFE0DF0895002410E2EE272C
:100D2000FF27569547953795279520F4060E171EF1
:100D3000E81FF91F660F771F881F991F1A9589F7FB
:100D4000B001CF0111240895F8941EC0F894A8951D
:100D500088E10FB6F89481BD11BC0FBE82E887BD53
:100D600085B7806485BFBC9AC49A60E270E088272A
:100D700077FD8095982F605070408040904C21DC2A
:0C0D800080916000B1DF0895F894FFCF6F
:00000001FF
